{
  "contractName": "PlotToken",
  "abi": [
    {
      "inputs": [],
      "stateMutability": "nonpayable",
      "type": "constructor"
    },
    {
      "anonymous": false,
      "inputs": [
        {
          "indexed": true,
          "internalType": "address",
          "name": "owner",
          "type": "address"
        },
        {
          "indexed": true,
          "internalType": "address",
          "name": "approved",
          "type": "address"
        },
        {
          "indexed": true,
          "internalType": "uint256",
          "name": "tokenId",
          "type": "uint256"
        }
      ],
      "name": "Approval",
      "type": "event"
    },
    {
      "anonymous": false,
      "inputs": [
        {
          "indexed": true,
          "internalType": "address",
          "name": "owner",
          "type": "address"
        },
        {
          "indexed": true,
          "internalType": "address",
          "name": "operator",
          "type": "address"
        },
        {
          "indexed": false,
          "internalType": "bool",
          "name": "approved",
          "type": "bool"
        }
      ],
      "name": "ApprovalForAll",
      "type": "event"
    },
    {
      "anonymous": false,
      "inputs": [
        {
          "indexed": true,
          "internalType": "address",
          "name": "previousOwner",
          "type": "address"
        },
        {
          "indexed": true,
          "internalType": "address",
          "name": "newOwner",
          "type": "address"
        }
      ],
      "name": "OwnershipTransferred",
      "type": "event"
    },
    {
      "anonymous": false,
      "inputs": [
        {
          "indexed": true,
          "internalType": "address",
          "name": "from",
          "type": "address"
        },
        {
          "indexed": true,
          "internalType": "address",
          "name": "to",
          "type": "address"
        },
        {
          "indexed": true,
          "internalType": "uint256",
          "name": "tokenId",
          "type": "uint256"
        }
      ],
      "name": "Transfer",
      "type": "event"
    },
    {
      "inputs": [
        {
          "internalType": "address",
          "name": "to",
          "type": "address"
        },
        {
          "internalType": "uint256",
          "name": "tokenId",
          "type": "uint256"
        }
      ],
      "name": "approve",
      "outputs": [],
      "stateMutability": "nonpayable",
      "type": "function"
    },
    {
      "inputs": [
        {
          "internalType": "address",
          "name": "owner",
          "type": "address"
        }
      ],
      "name": "balanceOf",
      "outputs": [
        {
          "internalType": "uint256",
          "name": "",
          "type": "uint256"
        }
      ],
      "stateMutability": "view",
      "type": "function",
      "constant": true
    },
    {
      "inputs": [
        {
          "internalType": "uint256",
          "name": "tokenId",
          "type": "uint256"
        }
      ],
      "name": "getApproved",
      "outputs": [
        {
          "internalType": "address",
          "name": "",
          "type": "address"
        }
      ],
      "stateMutability": "view",
      "type": "function",
      "constant": true
    },
    {
      "inputs": [
        {
          "internalType": "address",
          "name": "owner",
          "type": "address"
        },
        {
          "internalType": "address",
          "name": "operator",
          "type": "address"
        }
      ],
      "name": "isApprovedForAll",
      "outputs": [
        {
          "internalType": "bool",
          "name": "",
          "type": "bool"
        }
      ],
      "stateMutability": "view",
      "type": "function",
      "constant": true
    },
    {
      "inputs": [],
      "name": "name",
      "outputs": [
        {
          "internalType": "string",
          "name": "",
          "type": "string"
        }
      ],
      "stateMutability": "view",
      "type": "function",
      "constant": true
    },
    {
      "inputs": [],
      "name": "owner",
      "outputs": [
        {
          "internalType": "address",
          "name": "",
          "type": "address"
        }
      ],
      "stateMutability": "view",
      "type": "function",
      "constant": true
    },
    {
      "inputs": [
        {
          "internalType": "uint256",
          "name": "tokenId",
          "type": "uint256"
        }
      ],
      "name": "ownerOf",
      "outputs": [
        {
          "internalType": "address",
          "name": "",
          "type": "address"
        }
      ],
      "stateMutability": "view",
      "type": "function",
      "constant": true
    },
    {
      "inputs": [
        {
          "internalType": "uint256",
          "name": "",
          "type": "uint256"
        }
      ],
      "name": "priceMap",
      "outputs": [
        {
          "internalType": "uint256",
          "name": "priceInWei",
          "type": "uint256"
        },
        {
          "internalType": "uint256",
          "name": "paidWei",
          "type": "uint256"
        }
      ],
      "stateMutability": "view",
      "type": "function",
      "constant": true
    },
    {
      "inputs": [],
      "name": "renounceOwnership",
      "outputs": [],
      "stateMutability": "nonpayable",
      "type": "function"
    },
    {
      "inputs": [
        {
          "internalType": "address",
          "name": "from",
          "type": "address"
        },
        {
          "internalType": "address",
          "name": "to",
          "type": "address"
        },
        {
          "internalType": "uint256",
          "name": "tokenId",
          "type": "uint256"
        }
      ],
      "name": "safeTransferFrom",
      "outputs": [],
      "stateMutability": "nonpayable",
      "type": "function"
    },
    {
      "inputs": [
        {
          "internalType": "address",
          "name": "from",
          "type": "address"
        },
        {
          "internalType": "address",
          "name": "to",
          "type": "address"
        },
        {
          "internalType": "uint256",
          "name": "tokenId",
          "type": "uint256"
        },
        {
          "internalType": "bytes",
          "name": "_data",
          "type": "bytes"
        }
      ],
      "name": "safeTransferFrom",
      "outputs": [],
      "stateMutability": "nonpayable",
      "type": "function"
    },
    {
      "inputs": [
        {
          "internalType": "address",
          "name": "operator",
          "type": "address"
        },
        {
          "internalType": "bool",
          "name": "approved",
          "type": "bool"
        }
      ],
      "name": "setApprovalForAll",
      "outputs": [],
      "stateMutability": "nonpayable",
      "type": "function"
    },
    {
      "inputs": [],
      "name": "symbol",
      "outputs": [
        {
          "internalType": "string",
          "name": "",
          "type": "string"
        }
      ],
      "stateMutability": "view",
      "type": "function",
      "constant": true
    },
    {
      "inputs": [
        {
          "internalType": "uint256",
          "name": "index",
          "type": "uint256"
        }
      ],
      "name": "tokenByIndex",
      "outputs": [
        {
          "internalType": "uint256",
          "name": "",
          "type": "uint256"
        }
      ],
      "stateMutability": "view",
      "type": "function",
      "constant": true
    },
    {
      "inputs": [
        {
          "internalType": "address",
          "name": "owner",
          "type": "address"
        },
        {
          "internalType": "uint256",
          "name": "index",
          "type": "uint256"
        }
      ],
      "name": "tokenOfOwnerByIndex",
      "outputs": [
        {
          "internalType": "uint256",
          "name": "",
          "type": "uint256"
        }
      ],
      "stateMutability": "view",
      "type": "function",
      "constant": true
    },
    {
      "inputs": [
        {
          "internalType": "uint256",
          "name": "",
          "type": "uint256"
        }
      ],
      "name": "tokenPrice",
      "outputs": [
        {
          "internalType": "uint256",
          "name": "",
          "type": "uint256"
        }
      ],
      "stateMutability": "view",
      "type": "function",
      "constant": true
    },
    {
      "inputs": [
        {
          "internalType": "uint256",
          "name": "tokenId",
          "type": "uint256"
        }
      ],
      "name": "tokenURI",
      "outputs": [
        {
          "internalType": "string",
          "name": "",
          "type": "string"
        }
      ],
      "stateMutability": "view",
      "type": "function",
      "constant": true
    },
    {
      "inputs": [],
      "name": "totalSupply",
      "outputs": [
        {
          "internalType": "uint256",
          "name": "",
          "type": "uint256"
        }
      ],
      "stateMutability": "view",
      "type": "function",
      "constant": true
    },
    {
      "inputs": [
        {
          "internalType": "address",
          "name": "from",
          "type": "address"
        },
        {
          "internalType": "address",
          "name": "to",
          "type": "address"
        },
        {
          "internalType": "uint256",
          "name": "tokenId",
          "type": "uint256"
        }
      ],
      "name": "transferFrom",
      "outputs": [],
      "stateMutability": "nonpayable",
      "type": "function"
    },
    {
      "inputs": [
        {
          "internalType": "address",
          "name": "newOwner",
          "type": "address"
        }
      ],
      "name": "transferOwnership",
      "outputs": [],
      "stateMutability": "nonpayable",
      "type": "function"
    },
    {
      "inputs": [
        {
          "internalType": "address",
          "name": "to",
          "type": "address"
        },
        {
          "internalType": "uint256",
          "name": "_priceInWei",
          "type": "uint256"
        }
      ],
      "name": "mintPlotToken",
      "outputs": [],
      "stateMutability": "nonpayable",
      "type": "function"
    },
    {
      "inputs": [
        {
          "internalType": "address",
          "name": "from_buyer",
          "type": "address"
        },
        {
          "internalType": "address",
          "name": "to_Owner",
          "type": "address"
        },
        {
          "internalType": "uint256",
          "name": "_tokenId",
          "type": "uint256"
        }
      ],
      "name": "buyPlotToken",
      "outputs": [],
      "stateMutability": "payable",
      "type": "function",
      "payable": true
    },
    {
      "inputs": [
        {
          "internalType": "bytes4",
          "name": "interfaceId",
          "type": "bytes4"
        }
      ],
      "name": "supportsInterface",
      "outputs": [
        {
          "internalType": "bool",
          "name": "",
          "type": "bool"
        }
      ],
      "stateMutability": "view",
      "type": "function",
      "constant": true
    }
  ],
  "bytecode": "0x60806040523480156200001157600080fd5b506040518060400160405280600981526020017f506c6f74546f6b656e00000000000000000000000000000000000000000000008152506040518060400160405280600381526020017f504c4f0000000000000000000000000000000000000000000000000000000000815250816000908051906020019062000096929190620001a6565b508060019080519060200190620000af929190620001a6565b505050620000d2620000c6620000d860201b60201c565b620000e060201b60201c565b620002bb565b600033905090565b6000600a60009054906101000a900473ffffffffffffffffffffffffffffffffffffffff16905081600a60006101000a81548173ffffffffffffffffffffffffffffffffffffffff021916908373ffffffffffffffffffffffffffffffffffffffff1602179055508173ffffffffffffffffffffffffffffffffffffffff168173ffffffffffffffffffffffffffffffffffffffff167f8be0079c531659141344cd1fd0a4f28419497f9722a3daafe3b4186f6b6457e060405160405180910390a35050565b828054620001b49062000256565b90600052602060002090601f016020900481019282620001d8576000855562000224565b82601f10620001f357805160ff191683800117855562000224565b8280016001018555821562000224579182015b828111156200022357825182559160200191906001019062000206565b5b50905062000233919062000237565b5090565b5b808211156200025257600081600090555060010162000238565b5090565b600060028204905060018216806200026f57607f821691505b602082108114156200028657620002856200028c565b5b50919050565b7f4e487b7100000000000000000000000000000000000000000000000000000000600052602260045260246000fd5b6137be80620002cb6000396000f3fe6080604052600436106101405760003560e01c806370a08231116100b6578063b25c72601161006f578063b25c72601461045f578063b88d4fde1461049d578063c87b56dd146104c6578063d4ddce8a14610503578063e985e9c514610540578063f2fde38b1461057d57610140565b806370a0823114610363578063715018a6146103a057806383ca7c38146103b75780638da5cb5b146103e057806395d89b411461040b578063a22cb4651461043657610140565b806318160ddd1161010857806318160ddd1461022f57806323b872dd1461025a5780632f745c591461028357806342842e0e146102c05780634f6ccce7146102e95780636352211e1461032657610140565b806301ffc9a71461014557806306fdde0314610182578063081812fc146101ad578063095ea7b3146101ea57806312b1ae3814610213575b600080fd5b34801561015157600080fd5b5061016c60048036038101906101679190612709565b6105a6565b6040516101799190613059565b60405180910390f35b34801561018e57600080fd5b506101976105b8565b6040516101a49190613074565b60405180910390f35b3480156101b957600080fd5b506101d460048036038101906101cf919061275b565b61064a565b6040516101e19190612ff2565b60405180910390f35b3480156101f657600080fd5b50610211600480360381019061020c91906126cd565b6106cf565b005b61022d600480360381019061022891906125c7565b6107e7565b005b34801561023b57600080fd5b506102446108ca565b6040516102519190613336565b60405180910390f35b34801561026657600080fd5b50610281600480360381019061027c91906125c7565b6108d7565b005b34801561028f57600080fd5b506102aa60048036038101906102a591906126cd565b610937565b6040516102b79190613336565b60405180910390f35b3480156102cc57600080fd5b506102e760048036038101906102e291906125c7565b6109dc565b005b3480156102f557600080fd5b50610310600480360381019061030b919061275b565b6109fc565b60405161031d9190613336565b60405180910390f35b34801561033257600080fd5b5061034d6004803603810190610348919061275b565b610a93565b60405161035a9190612ff2565b60405180910390f35b34801561036f57600080fd5b5061038a60048036038101906103859190612562565b610b45565b6040516103979190613336565b60405180910390f35b3480156103ac57600080fd5b506103b5610bfd565b005b3480156103c357600080fd5b506103de60048036038101906103d991906126cd565b610c85565b005b3480156103ec57600080fd5b506103f5610ce8565b6040516104029190612ff2565b60405180910390f35b34801561041757600080fd5b50610420610d12565b60405161042d9190613074565b60405180910390f35b34801561044257600080fd5b5061045d60048036038101906104589190612691565b610da4565b005b34801561046b57600080fd5b506104866004803603810190610481919061275b565b610dba565b604051610494929190613351565b60405180910390f35b3480156104a957600080fd5b506104c460048036038101906104bf9190612616565b610dde565b005b3480156104d257600080fd5b506104ed60048036038101906104e8919061275b565b610e40565b6040516104fa9190613074565b60405180910390f35b34801561050f57600080fd5b5061052a6004803603810190610525919061275b565b610ee7565b6040516105379190613336565b60405180910390f35b34801561054c57600080fd5b506105676004803603810190610562919061258b565b610eff565b6040516105749190613059565b60405180910390f35b34801561058957600080fd5b506105a4600480360381019061059f9190612562565b610f93565b005b60006105b18261108b565b9050919050565b6060600080546105c79061358f565b80601f01602080910402602001604051908101604052809291908181526020018280546105f39061358f565b80156106405780601f1061061557610100808354040283529160200191610640565b820191906000526020600020905b81548152906001019060200180831161062357829003601f168201915b5050505050905090565b600061065582611105565b610694576040517f08c379a000000000000000000000000000000000000000000000000000000000815260040161068b90613276565b60405180910390fd5b6004600083815260200190815260200160002060009054906101000a900473ffffffffffffffffffffffffffffffffffffffff169050919050565b60006106da82610a93565b90508073ffffffffffffffffffffffffffffffffffffffff168373ffffffffffffffffffffffffffffffffffffffff16141561074b576040517f08c379a0000000000000000000000000000000000000000000000000000000008152600401610742906132d6565b60405180910390fd5b8073ffffffffffffffffffffffffffffffffffffffff1661076a611171565b73ffffffffffffffffffffffffffffffffffffffff161480610799575061079881610793611171565b610eff565b5b6107d8576040517f08c379a00000000000000000000000000000000000000000000000000000000081526004016107cf906131f6565b60405180910390fd5b6107e28383611179565b505050565b600c600082815260200190815260200160002060000154341461083f576040517f08c379a0000000000000000000000000000000000000000000000000000000008152600401610836906131b6565b60405180910390fd5b6000600c60008381526020019081526020016000206001015414610898576040517f08c379a000000000000000000000000000000000000000000000000000000000815260040161088f90613096565b60405180910390fd5b34600c600083815260200190815260200160002060010160008282546108be919061341e565b92505081905550505050565b6000600880549050905090565b6108e86108e2611171565b82611232565b610927576040517f08c379a000000000000000000000000000000000000000000000000000000000815260040161091e906132f6565b60405180910390fd5b610932838383611310565b505050565b600061094283610b45565b8210610983576040517f08c379a000000000000000000000000000000000000000000000000000000000815260040161097a906130b6565b60405180910390fd5b600660008473ffffffffffffffffffffffffffffffffffffffff1673ffffffffffffffffffffffffffffffffffffffff168152602001908152602001600020600083815260200190815260200160002054905092915050565b6109f783838360405180602001604052806000815250610dde565b505050565b6000610a066108ca565b8210610a47576040517f08c379a0000000000000000000000000000000000000000000000000000000008152600401610a3e90613316565b60405180910390fd5b60088281548110610a81577f4e487b7100000000000000000000000000000000000000000000000000000000600052603260045260246000fd5b90600052602060002001549050919050565b6000806002600084815260200190815260200160002060009054906101000a900473ffffffffffffffffffffffffffffffffffffffff169050600073ffffffffffffffffffffffffffffffffffffffff168173ffffffffffffffffffffffffffffffffffffffff161415610b3c576040517f08c379a0000000000000000000000000000000000000000000000000000000008152600401610b3390613236565b60405180910390fd5b80915050919050565b60008073ffffffffffffffffffffffffffffffffffffffff168273ffffffffffffffffffffffffffffffffffffffff161415610bb6576040517f08c379a0000000000000000000000000000000000000000000000000000000008152600401610bad90613216565b60405180910390fd5b600360008373ffffffffffffffffffffffffffffffffffffffff1673ffffffffffffffffffffffffffffffffffffffff168152602001908152602001600020549050919050565b610c05611171565b73ffffffffffffffffffffffffffffffffffffffff16610c23610ce8565b73ffffffffffffffffffffffffffffffffffffffff1614610c79576040517f08c379a0000000000000000000000000000000000000000000000000000000008152600401610c7090613296565b60405180910390fd5b610c836000611577565b565b6000610c91600b61163d565b905081600c60008381526020019081526020016000206000018190555081600d6000610cbd600b61163d565b815260200190815260200160002081905550610cd9600b61164b565b610ce38382611661565b505050565b6000600a60009054906101000a900473ffffffffffffffffffffffffffffffffffffffff16905090565b606060018054610d219061358f565b80601f0160208091040260200160405190810160405280929190818152602001828054610d4d9061358f565b8015610d9a5780601f10610d6f57610100808354040283529160200191610d9a565b820191906000526020600020905b815481529060010190602001808311610d7d57829003601f168201915b5050505050905090565b610db6610daf611171565b838361167f565b5050565b600c6020528060005260406000206000915090508060000154908060010154905082565b610def610de9611171565b83611232565b610e2e576040517f08c379a0000000000000000000000000000000000000000000000000000000008152600401610e25906132f6565b60405180910390fd5b610e3a848484846117ec565b50505050565b6060610e4b82611105565b610e8a576040517f08c379a0000000000000000000000000000000000000000000000000000000008152600401610e81906132b6565b60405180910390fd5b6000610e94611848565b90506000815111610eb45760405180602001604052806000815250610edf565b80610ebe84611868565b604051602001610ecf929190612fce565b6040516020818303038152906040525b915050919050565b600d6020528060005260406000206000915090505481565b6000600560008473ffffffffffffffffffffffffffffffffffffffff1673ffffffffffffffffffffffffffffffffffffffff16815260200190815260200160002060008373ffffffffffffffffffffffffffffffffffffffff1673ffffffffffffffffffffffffffffffffffffffff16815260200190815260200160002060009054906101000a900460ff16905092915050565b610f9b611171565b73ffffffffffffffffffffffffffffffffffffffff16610fb9610ce8565b73ffffffffffffffffffffffffffffffffffffffff161461100f576040517f08c379a000000000000000000000000000000000000000000000000000000000815260040161100690613296565b60405180910390fd5b600073ffffffffffffffffffffffffffffffffffffffff168173ffffffffffffffffffffffffffffffffffffffff16141561107f576040517f08c379a000000000000000000000000000000000000000000000000000000000815260040161107690613116565b60405180910390fd5b61108881611577565b50565b60007f780e9d63000000000000000000000000000000000000000000000000000000007bffffffffffffffffffffffffffffffffffffffffffffffffffffffff1916827bffffffffffffffffffffffffffffffffffffffffffffffffffffffff191614806110fe57506110fd82611a15565b5b9050919050565b60008073ffffffffffffffffffffffffffffffffffffffff166002600084815260200190815260200160002060009054906101000a900473ffffffffffffffffffffffffffffffffffffffff1673ffffffffffffffffffffffffffffffffffffffff1614159050919050565b600033905090565b816004600083815260200190815260200160002060006101000a81548173ffffffffffffffffffffffffffffffffffffffff021916908373ffffffffffffffffffffffffffffffffffffffff160217905550808273ffffffffffffffffffffffffffffffffffffffff166111ec83610a93565b73ffffffffffffffffffffffffffffffffffffffff167f8c5be1e5ebec7d5bd14f71427d1e84f3dd0314c0f7b2291e5b200ac8c7c3b92560405160405180910390a45050565b600061123d82611105565b61127c576040517f08c379a0000000000000000000000000000000000000000000000000000000008152600401611273906131d6565b60405180910390fd5b600061128783610a93565b90508073ffffffffffffffffffffffffffffffffffffffff168473ffffffffffffffffffffffffffffffffffffffff1614806112c957506112c88185610eff565b5b8061130757508373ffffffffffffffffffffffffffffffffffffffff166112ef8461064a565b73ffffffffffffffffffffffffffffffffffffffff16145b91505092915050565b8273ffffffffffffffffffffffffffffffffffffffff1661133082610a93565b73ffffffffffffffffffffffffffffffffffffffff1614611386576040517f08c379a000000000000000000000000000000000000000000000000000000000815260040161137d90613136565b60405180910390fd5b600073ffffffffffffffffffffffffffffffffffffffff168273ffffffffffffffffffffffffffffffffffffffff1614156113f6576040517f08c379a00000000000000000000000000000000000000000000000000000000081526004016113ed90613176565b60405180910390fd5b611401838383611af7565b61140c600082611179565b6001600360008573ffffffffffffffffffffffffffffffffffffffff1673ffffffffffffffffffffffffffffffffffffffff168152602001908152602001600020600082825461145c91906134a5565b925050819055506001600360008473ffffffffffffffffffffffffffffffffffffffff1673ffffffffffffffffffffffffffffffffffffffff16815260200190815260200160002060008282546114b3919061341e565b92505081905550816002600083815260200190815260200160002060006101000a81548173ffffffffffffffffffffffffffffffffffffffff021916908373ffffffffffffffffffffffffffffffffffffffff160217905550808273ffffffffffffffffffffffffffffffffffffffff168473ffffffffffffffffffffffffffffffffffffffff167fddf252ad1be2c89b69c2b068fc378daa952ba7f163c4a11628f55a4df523b3ef60405160405180910390a4611572838383611b86565b505050565b6000600a60009054906101000a900473ffffffffffffffffffffffffffffffffffffffff16905081600a60006101000a81548173ffffffffffffffffffffffffffffffffffffffff021916908373ffffffffffffffffffffffffffffffffffffffff1602179055508173ffffffffffffffffffffffffffffffffffffffff168173ffffffffffffffffffffffffffffffffffffffff167f8be0079c531659141344cd1fd0a4f28419497f9722a3daafe3b4186f6b6457e060405160405180910390a35050565b600081600001549050919050565b6001816000016000828254019250508190555050565b61167b828260405180602001604052806000815250611b8b565b5050565b8173ffffffffffffffffffffffffffffffffffffffff168373ffffffffffffffffffffffffffffffffffffffff1614156116ee576040517f08c379a00000000000000000000000000000000000000000000000000000000081526004016116e590613196565b60405180910390fd5b80600560008573ffffffffffffffffffffffffffffffffffffffff1673ffffffffffffffffffffffffffffffffffffffff16815260200190815260200160002060008473ffffffffffffffffffffffffffffffffffffffff1673ffffffffffffffffffffffffffffffffffffffff16815260200190815260200160002060006101000a81548160ff0219169083151502179055508173ffffffffffffffffffffffffffffffffffffffff168373ffffffffffffffffffffffffffffffffffffffff167f17307eab39ab6107e8899845ad3d59bd9653f200f220920489ca2b5937696c31836040516117df9190613059565b60405180910390a3505050565b6117f7848484611310565b61180384848484611be6565b611842576040517f08c379a0000000000000000000000000000000000000000000000000000000008152600401611839906130d6565b60405180910390fd5b50505050565b606060405180606001604052806024815260200161376560249139905090565b606060008214156118b0576040518060400160405280600181526020017f30000000000000000000000000000000000000000000000000000000000000008152509050611a10565b600082905060005b600082146118e25780806118cb906135c1565b915050600a826118db9190613474565b91506118b8565b60008167ffffffffffffffff811115611924577f4e487b7100000000000000000000000000000000000000000000000000000000600052604160045260246000fd5b6040519080825280601f01601f1916602001820160405280156119565781602001600182028036833780820191505090505b5090505b60008514611a095760018261196f91906134a5565b9150600a8561197e919061360a565b603061198a919061341e565b60f81b8183815181106119c6577f4e487b7100000000000000000000000000000000000000000000000000000000600052603260045260246000fd5b60200101907effffffffffffffffffffffffffffffffffffffffffffffffffffffffffffff1916908160001a905350600a85611a029190613474565b945061195a565b8093505050505b919050565b60007f80ac58cd000000000000000000000000000000000000000000000000000000007bffffffffffffffffffffffffffffffffffffffffffffffffffffffff1916827bffffffffffffffffffffffffffffffffffffffffffffffffffffffff19161480611ae057507f5b5e139f000000000000000000000000000000000000000000000000000000007bffffffffffffffffffffffffffffffffffffffffffffffffffffffff1916827bffffffffffffffffffffffffffffffffffffffffffffffffffffffff1916145b80611af05750611aef82611d7d565b5b9050919050565b611b0081611105565b1580611b375750600c600082815260200190815260200160002060000154600c600083815260200190815260200160002060010154145b611b76576040517f08c379a0000000000000000000000000000000000000000000000000000000008152600401611b6d906130f6565b60405180910390fd5b611b81838383611de7565b505050565b505050565b611b958383611efb565b611ba26000848484611be6565b611be1576040517f08c379a0000000000000000000000000000000000000000000000000000000008152600401611bd8906130d6565b60405180910390fd5b505050565b6000611c078473ffffffffffffffffffffffffffffffffffffffff166120d5565b15611d70578373ffffffffffffffffffffffffffffffffffffffff1663150b7a02611c30611171565b8786866040518563ffffffff1660e01b8152600401611c52949392919061300d565b602060405180830381600087803b158015611c6c57600080fd5b505af1925050508015611c9d57506040513d601f19601f82011682018060405250810190611c9a9190612732565b60015b611d20573d8060008114611ccd576040519150601f19603f3d011682016040523d82523d6000602084013e611cd2565b606091505b50600081511415611d18576040517f08c379a0000000000000000000000000000000000000000000000000000000008152600401611d0f906130d6565b60405180910390fd5b805181602001fd5b63150b7a0260e01b7bffffffffffffffffffffffffffffffffffffffffffffffffffffffff1916817bffffffffffffffffffffffffffffffffffffffffffffffffffffffff191614915050611d75565b600190505b949350505050565b60007f01ffc9a7000000000000000000000000000000000000000000000000000000007bffffffffffffffffffffffffffffffffffffffffffffffffffffffff1916827bffffffffffffffffffffffffffffffffffffffffffffffffffffffff1916149050919050565b611df2838383612114565b600073ffffffffffffffffffffffffffffffffffffffff168373ffffffffffffffffffffffffffffffffffffffff161415611e3557611e3081612119565b611e74565b8173ffffffffffffffffffffffffffffffffffffffff168373ffffffffffffffffffffffffffffffffffffffff1614611e7357611e728382612162565b5b5b600073ffffffffffffffffffffffffffffffffffffffff168273ffffffffffffffffffffffffffffffffffffffff161415611eb757611eb2816122cf565b611ef6565b8273ffffffffffffffffffffffffffffffffffffffff168273ffffffffffffffffffffffffffffffffffffffff1614611ef557611ef48282612412565b5b5b505050565b600073ffffffffffffffffffffffffffffffffffffffff168273ffffffffffffffffffffffffffffffffffffffff161415611f6b576040517f08c379a0000000000000000000000000000000000000000000000000000000008152600401611f6290613256565b60405180910390fd5b611f7481611105565b15611fb4576040517f08c379a0000000000000000000000000000000000000000000000000000000008152600401611fab90613156565b60405180910390fd5b611fc060008383611af7565b6001600360008473ffffffffffffffffffffffffffffffffffffffff1673ffffffffffffffffffffffffffffffffffffffff1681526020019081526020016000206000828254612010919061341e565b92505081905550816002600083815260200190815260200160002060006101000a81548173ffffffffffffffffffffffffffffffffffffffff021916908373ffffffffffffffffffffffffffffffffffffffff160217905550808273ffffffffffffffffffffffffffffffffffffffff16600073ffffffffffffffffffffffffffffffffffffffff167fddf252ad1be2c89b69c2b068fc378daa952ba7f163c4a11628f55a4df523b3ef60405160405180910390a46120d160008383611b86565b5050565b6000808273ffffffffffffffffffffffffffffffffffffffff16803b806020016040519081016040528181526000908060200190933c51119050919050565b505050565b6008805490506009600083815260200190815260200160002081905550600881908060018154018082558091505060019003906000526020600020016000909190919091505550565b6000600161216f84610b45565b61217991906134a5565b905060006007600084815260200190815260200160002054905081811461225e576000600660008673ffffffffffffffffffffffffffffffffffffffff1673ffffffffffffffffffffffffffffffffffffffff168152602001908152602001600020600084815260200190815260200160002054905080600660008773ffffffffffffffffffffffffffffffffffffffff1673ffffffffffffffffffffffffffffffffffffffff168152602001908152602001600020600084815260200190815260200160002081905550816007600083815260200190815260200160002081905550505b6007600084815260200190815260200160002060009055600660008573ffffffffffffffffffffffffffffffffffffffff1673ffffffffffffffffffffffffffffffffffffffff16815260200190815260200160002060008381526020019081526020016000206000905550505050565b600060016008805490506122e391906134a5565b9050600060096000848152602001908152602001600020549050600060088381548110612339577f4e487b7100000000000000000000000000000000000000000000000000000000600052603260045260246000fd5b906000526020600020015490508060088381548110612381577f4e487b7100000000000000000000000000000000000000000000000000000000600052603260045260246000fd5b9060005260206000200181905550816009600083815260200190815260200160002081905550600960008581526020019081526020016000206000905560088054806123f6577f4e487b7100000000000000000000000000000000000000000000000000000000600052603160045260246000fd5b6001900381819060005260206000200160009055905550505050565b600061241d83610b45565b905081600660008573ffffffffffffffffffffffffffffffffffffffff1673ffffffffffffffffffffffffffffffffffffffff168152602001908152602001600020600083815260200190815260200160002081905550806007600084815260200190815260200160002081905550505050565b60006124a461249f846133ab565b61337a565b9050828152602081018484840111156124bc57600080fd5b6124c784828561354d565b509392505050565b6000813590506124de81613708565b92915050565b6000813590506124f38161371f565b92915050565b60008135905061250881613736565b92915050565b60008151905061251d81613736565b92915050565b600082601f83011261253457600080fd5b8135612544848260208601612491565b91505092915050565b60008135905061255c8161374d565b92915050565b60006020828403121561257457600080fd5b6000612582848285016124cf565b91505092915050565b6000806040838503121561259e57600080fd5b60006125ac858286016124cf565b92505060206125bd858286016124cf565b9150509250929050565b6000806000606084860312156125dc57600080fd5b60006125ea868287016124cf565b93505060206125fb868287016124cf565b925050604061260c8682870161254d565b9150509250925092565b6000806000806080858703121561262c57600080fd5b600061263a878288016124cf565b945050602061264b878288016124cf565b935050604061265c8782880161254d565b925050606085013567ffffffffffffffff81111561267957600080fd5b61268587828801612523565b91505092959194509250565b600080604083850312156126a457600080fd5b60006126b2858286016124cf565b92505060206126c3858286016124e4565b9150509250929050565b600080604083850312156126e057600080fd5b60006126ee858286016124cf565b92505060206126ff8582860161254d565b9150509250929050565b60006020828403121561271b57600080fd5b6000612729848285016124f9565b91505092915050565b60006020828403121561274457600080fd5b60006127528482850161250e565b91505092915050565b60006020828403121561276d57600080fd5b600061277b8482850161254d565b91505092915050565b61278d816134d9565b82525050565b61279c816134eb565b82525050565b60006127ad826133db565b6127b781856133f1565b93506127c781856020860161355c565b6127d0816136f7565b840191505092915050565b60006127e6826133e6565b6127f08185613402565b935061280081856020860161355c565b612809816136f7565b840191505092915050565b600061281f826133e6565b6128298185613413565b935061283981856020860161355c565b80840191505092915050565b6000612852601583613402565b91507f4974656d20697320616c726561647920706169642100000000000000000000006000830152602082019050919050565b6000612892602b83613402565b91507f455243373231456e756d657261626c653a206f776e657220696e646578206f7560008301527f74206f6620626f756e64730000000000000000000000000000000000000000006020830152604082019050919050565b60006128f8603283613402565b91507f4552433732313a207472616e7366657220746f206e6f6e20455243373231526560008301527f63656976657220696d706c656d656e74657200000000000000000000000000006020830152604082019050919050565b600061295e601083613402565b91507f546f6b656e206e6f7420626f75676874000000000000000000000000000000006000830152602082019050919050565b600061299e602683613402565b91507f4f776e61626c653a206e6577206f776e657220697320746865207a65726f206160008301527f64647265737300000000000000000000000000000000000000000000000000006020830152604082019050919050565b6000612a04602583613402565b91507f4552433732313a207472616e736665722066726f6d20696e636f72726563742060008301527f6f776e65720000000000000000000000000000000000000000000000000000006020830152604082019050919050565b6000612a6a601c83613402565b91507f4552433732313a20746f6b656e20616c7265616479206d696e746564000000006000830152602082019050919050565b6000612aaa602483613402565b91507f4552433732313a207472616e7366657220746f20746865207a65726f2061646460008301527f72657373000000000000000000000000000000000000000000000000000000006020830152604082019050919050565b6000612b10601983613402565b91507f4552433732313a20617070726f766520746f2063616c6c6572000000000000006000830152602082019050919050565b6000612b50602183613402565b91507f576520646f6e277420737570706f7274207061727469616c207061796d656e7460008301527f73000000000000000000000000000000000000000000000000000000000000006020830152604082019050919050565b6000612bb6602c83613402565b91507f4552433732313a206f70657261746f7220717565727920666f72206e6f6e657860008301527f697374656e7420746f6b656e00000000000000000000000000000000000000006020830152604082019050919050565b6000612c1c603883613402565b91507f4552433732313a20617070726f76652063616c6c6572206973206e6f74206f7760008301527f6e6572206e6f7220617070726f76656420666f7220616c6c00000000000000006020830152604082019050919050565b6000612c82602a83613402565b91507f4552433732313a2062616c616e636520717565727920666f7220746865207a6560008301527f726f2061646472657373000000000000000000000000000000000000000000006020830152604082019050919050565b6000612ce8602983613402565b91507f4552433732313a206f776e657220717565727920666f72206e6f6e657869737460008301527f656e7420746f6b656e00000000000000000000000000000000000000000000006020830152604082019050919050565b6000612d4e602083613402565b91507f4552433732313a206d696e7420746f20746865207a65726f20616464726573736000830152602082019050919050565b6000612d8e602c83613402565b91507f4552433732313a20617070726f76656420717565727920666f72206e6f6e657860008301527f697374656e7420746f6b656e00000000000000000000000000000000000000006020830152604082019050919050565b6000612df4602083613402565b91507f4f776e61626c653a2063616c6c6572206973206e6f7420746865206f776e65726000830152602082019050919050565b6000612e34602f83613402565b91507f4552433732314d657461646174613a2055524920717565727920666f72206e6f60008301527f6e6578697374656e7420746f6b656e00000000000000000000000000000000006020830152604082019050919050565b6000612e9a602183613402565b91507f4552433732313a20617070726f76616c20746f2063757272656e74206f776e6560008301527f72000000000000000000000000000000000000000000000000000000000000006020830152604082019050919050565b6000612f00603183613402565b91507f4552433732313a207472616e736665722063616c6c6572206973206e6f74206f60008301527f776e6572206e6f7220617070726f7665640000000000000000000000000000006020830152604082019050919050565b6000612f66602c83613402565b91507f455243373231456e756d657261626c653a20676c6f62616c20696e646578206f60008301527f7574206f6620626f756e647300000000000000000000000000000000000000006020830152604082019050919050565b612fc881613543565b82525050565b6000612fda8285612814565b9150612fe68284612814565b91508190509392505050565b60006020820190506130076000830184612784565b92915050565b60006080820190506130226000830187612784565b61302f6020830186612784565b61303c6040830185612fbf565b818103606083015261304e81846127a2565b905095945050505050565b600060208201905061306e6000830184612793565b92915050565b6000602082019050818103600083015261308e81846127db565b905092915050565b600060208201905081810360008301526130af81612845565b9050919050565b600060208201905081810360008301526130cf81612885565b9050919050565b600060208201905081810360008301526130ef816128eb565b9050919050565b6000602082019050818103600083015261310f81612951565b9050919050565b6000602082019050818103600083015261312f81612991565b9050919050565b6000602082019050818103600083015261314f816129f7565b9050919050565b6000602082019050818103600083015261316f81612a5d565b9050919050565b6000602082019050818103600083015261318f81612a9d565b9050919050565b600060208201905081810360008301526131af81612b03565b9050919050565b600060208201905081810360008301526131cf81612b43565b9050919050565b600060208201905081810360008301526131ef81612ba9565b9050919050565b6000602082019050818103600083015261320f81612c0f565b9050919050565b6000602082019050818103600083015261322f81612c75565b9050919050565b6000602082019050818103600083015261324f81612cdb565b9050919050565b6000602082019050818103600083015261326f81612d41565b9050919050565b6000602082019050818103600083015261328f81612d81565b9050919050565b600060208201905081810360008301526132af81612de7565b9050919050565b600060208201905081810360008301526132cf81612e27565b9050919050565b600060208201905081810360008301526132ef81612e8d565b9050919050565b6000602082019050818103600083015261330f81612ef3565b9050919050565b6000602082019050818103600083015261332f81612f59565b9050919050565b600060208201905061334b6000830184612fbf565b92915050565b60006040820190506133666000830185612fbf565b6133736020830184612fbf565b9392505050565b6000604051905081810181811067ffffffffffffffff821117156133a1576133a06136c8565b5b8060405250919050565b600067ffffffffffffffff8211156133c6576133c56136c8565b5b601f19601f8301169050602081019050919050565b600081519050919050565b600081519050919050565b600082825260208201905092915050565b600082825260208201905092915050565b600081905092915050565b600061342982613543565b915061343483613543565b9250827fffffffffffffffffffffffffffffffffffffffffffffffffffffffffffffffff038211156134695761346861363b565b5b828201905092915050565b600061347f82613543565b915061348a83613543565b92508261349a5761349961366a565b5b828204905092915050565b60006134b082613543565b91506134bb83613543565b9250828210156134ce576134cd61363b565b5b828203905092915050565b60006134e482613523565b9050919050565b60008115159050919050565b60007fffffffff0000000000000000000000000000000000000000000000000000000082169050919050565b600073ffffffffffffffffffffffffffffffffffffffff82169050919050565b6000819050919050565b82818337600083830152505050565b60005b8381101561357a57808201518184015260208101905061355f565b83811115613589576000848401525b50505050565b600060028204905060018216806135a757607f821691505b602082108114156135bb576135ba613699565b5b50919050565b60006135cc82613543565b91507fffffffffffffffffffffffffffffffffffffffffffffffffffffffffffffffff8214156135ff576135fe61363b565b5b600182019050919050565b600061361582613543565b915061362083613543565b9250826136305761362f61366a565b5b828206905092915050565b7f4e487b7100000000000000000000000000000000000000000000000000000000600052601160045260246000fd5b7f4e487b7100000000000000000000000000000000000000000000000000000000600052601260045260246000fd5b7f4e487b7100000000000000000000000000000000000000000000000000000000600052602260045260246000fd5b7f4e487b7100000000000000000000000000000000000000000000000000000000600052604160045260246000fd5b6000601f19601f8301169050919050565b613711816134d9565b811461371c57600080fd5b50565b613728816134eb565b811461373357600080fd5b50565b61373f816134f7565b811461374a57600080fd5b50565b61375681613543565b811461376157600080fd5b5056fe68747470733a2f2f706c6f742d746f6b656e2e73656c6c6275792f6d657461646174612fa2646970667358221220fd562005171c1e73778745ed2b397277b9dd3d46f4c0a15dbb175bea5ae8665364736f6c63430008000033",
  "immutableReferences": {},
  "source": "// SPDX-License-Identifier: MIT\r\npragma solidity ^0.8.0;\r\n\r\nimport \"@openzeppelin/contracts/token/ERC721/ERC721.sol\";\r\nimport \"@openzeppelin/contracts/token/ERC721/extensions/ERC721Enumerable.sol\";\r\nimport \"@openzeppelin/contracts/access/Ownable.sol\";\r\nimport \"@openzeppelin/contracts/utils/Counters.sol\";\r\n\r\ncontract PlotToken is ERC721, ERC721Enumerable, Ownable {\r\n\r\n    using Counters for Counters.Counter;\r\n    Counters.Counter private _tokenIdCounter;\r\n \r\n    struct Plot {\r\n        uint priceInWei;\r\n        uint paidWei;\r\n    }\r\n\r\n    mapping (uint => Plot) public priceMap;\r\n    mapping (uint => uint) public tokenPrice;\r\n\r\n    constructor() ERC721(\"PlotToken\", \"PLO\") \r\n    {}\r\n\r\n    function _baseURI() internal pure override returns (string memory) {\r\n        return \"https://plot-token.sellbuy/metadata/\";\r\n    }\r\n\r\n    function mintPlotToken(address to, uint _priceInWei) public {\r\n        uint _tokenId = _tokenIdCounter.current();\r\n        priceMap[_tokenId].priceInWei = _priceInWei;\r\n        tokenPrice[_tokenIdCounter.current()] = _priceInWei;\r\n        _tokenIdCounter.increment();\r\n        super._safeMint(to, _tokenId);\r\n    }\r\n\r\n    function buyPlotToken(address from_buyer, address to_Owner, uint _tokenId) public payable {\r\n        \r\n        require(msg.value == priceMap[_tokenId].priceInWei, \"We don't support partial payments\");\r\n        require(priceMap[_tokenId].paidWei == 0, \"Item is already paid!\");\r\n        priceMap[_tokenId].paidWei += msg.value;\r\n\r\n    }\r\n\r\n    function _beforeTokenTransfer(address from, address to, uint _tokenId) internal override(ERC721, ERC721Enumerable) {\r\n        require(! _exists(_tokenId) || priceMap[_tokenId].paidWei == priceMap[_tokenId].priceInWei ,\"Token not bought\");\r\n        super._beforeTokenTransfer(from, to, _tokenId);\r\n    }\r\n\r\n    function supportsInterface(bytes4 interfaceId) public view override(ERC721, ERC721Enumerable) returns (bool)\r\n    {\r\n        return super.supportsInterface(interfaceId);\r\n    }\r\n}",
  "sourcePath": "C:\\Ethereum Blockchain Projects\\Plot (Asset) ERC721\\contracts\\PlotToken.sol",
  "compiler": {
    "name": "solc",
    "version": "0.8.0+commit.c7dfd78e.Emscripten.clang"
  },
  "schemaVersion": "3.4.7",
  "updatedAt": "2022-05-21T14:17:09.504Z",
  "networkType": "ethereum",
  "devdoc": {
    "kind": "dev",
    "methods": {
      "approve(address,uint256)": {
        "details": "See {IERC721-approve}."
      },
      "balanceOf(address)": {
        "details": "See {IERC721-balanceOf}."
      },
      "getApproved(uint256)": {
        "details": "See {IERC721-getApproved}."
      },
      "isApprovedForAll(address,address)": {
        "details": "See {IERC721-isApprovedForAll}."
      },
      "name()": {
        "details": "See {IERC721Metadata-name}."
      },
      "owner()": {
        "details": "Returns the address of the current owner."
      },
      "ownerOf(uint256)": {
        "details": "See {IERC721-ownerOf}."
      },
      "renounceOwnership()": {
        "details": "Leaves the contract without owner. It will not be possible to call `onlyOwner` functions anymore. Can only be called by the current owner. NOTE: Renouncing ownership will leave the contract without an owner, thereby removing any functionality that is only available to the owner."
      },
      "safeTransferFrom(address,address,uint256)": {
        "details": "See {IERC721-safeTransferFrom}."
      },
      "safeTransferFrom(address,address,uint256,bytes)": {
        "details": "See {IERC721-safeTransferFrom}."
      },
      "setApprovalForAll(address,bool)": {
        "details": "See {IERC721-setApprovalForAll}."
      },
      "symbol()": {
        "details": "See {IERC721Metadata-symbol}."
      },
      "tokenByIndex(uint256)": {
        "details": "See {IERC721Enumerable-tokenByIndex}."
      },
      "tokenOfOwnerByIndex(address,uint256)": {
        "details": "See {IERC721Enumerable-tokenOfOwnerByIndex}."
      },
      "tokenURI(uint256)": {
        "details": "See {IERC721Metadata-tokenURI}."
      },
      "totalSupply()": {
        "details": "See {IERC721Enumerable-totalSupply}."
      },
      "transferFrom(address,address,uint256)": {
        "details": "See {IERC721-transferFrom}."
      },
      "transferOwnership(address)": {
        "details": "Transfers ownership of the contract to a new account (`newOwner`). Can only be called by the current owner."
      }
    },
    "version": 1
  },
  "userdoc": {
    "kind": "user",
    "methods": {},
    "version": 1
  }
}